:10094C00C180C181590000000000000000000000BF
:10095C00000000000000000000000000000000008B
:03096C000108007F
:1009A800759850538EBF538EFE53890F758BE8751B
:0709B8008DFFC2ABD28E22BD
:0D09D600300007C2008F997F01227F0022B0
:10097000740129F9E43AFA800C12098FFF600F1212
:0F09800009D6BF01F4740129F9E43AFA80EB2299
:1009BF001209A8D2ACD2AF3001FDC2017B017A007F
:0709CF00790012097080F0AD
:03002300020800D0
:10080000C0E0C083C082C0D075D000C006C0073031
:100810009904C299D2002098030208B3C298AF0885
:10082000EF3395E0FE74002FF58274003EF583E50A
:1008300099F0E508701374002FF58274003EF5837B
:10084000E0B44105750801806AE508B40118FF337A
:1008500095E0FE74002FF58274003EF583E0B454F9
:1008600005750802804DC3E50864809482401AAF84
:1008700008EF3395E0FE74002FF58274003EF58397
:10088000E0645160040508802AAF08EF3395E0FE6C
:1008900074002FF58274003EF583E0B451127400A9
:1008A0002FF58274003EF583E4F0F508D201800351
:1008B000750800D007D006D0D0D082D083D0E032E7
:030000000208C033
:0C08C000787FE4F6D8FD7581200209075E
:10098F00BB010689828A83E0225002E722BBFE0266
:09099F00E32289828A83E4932299
:1008CC000209BFE493A3F8E493A34003F68001F27A
:1008DC0008DFF48029E493A3F85407240CC8C3332D
:1008EC00C4540F4420C8834004F456800146F6DFFC
:1008FC00E4800B010204081020408090094CE47E37
:10090C00019360BCA3FF543F30E509541FFEE493F0
:10091C00A360010ECF54C025E060A840B8E493A3B7
:10092C00FAE493A3F8E493A3C8C582C8CAC583CAE2
:10093C00F0A3C8C582C8CAC583CADFE9DEE780BE9A
:01096F000087
:00000001FF
