:1007C6000C11C0F9A4B0999282F88090FFBF080876
:0B07D6000A0A0A0A0A0A020A011000BF
:10077600E4F580E5A0541F44C0F5A0000053A01F77
:1007860074082510F8E62411F8E6F580E5A0541F54
:1007960044E0F5A0000053A01FAF107401A807089D
:1007A6008002C333D8FCF580E5A0541F44C0F5A0F1
:1007B600000053A01F0510E510B40803E4F510224D
:08093F007F6C7E91DEFEDFFCFF
:01094700228D
:1004C2007DFFC2C4D2C275B07FE5B0540FFF640F86
:1004D200603612093FE5B0540FFF640F601EEF242F
:1004E200F5600F24FE600F1460102407700EE4FD07
:1004F200800A7D0780067D0480027D01EF640F6023
:1005020007E5B0540FFF80F4D2C4C2C275B0BFE594
:10051200B0540FFF640F603612093FE5B0540FFF6D
:10052200640F601EEF24F5600F24FE600F1460104C
:100532002407700E7D10800A7D0880067D058002EA
:100542007D02EF640F6007E5B0540FFF80F4D2C460
:10055200D2C275B0DFE5B0540FFF640F60361209E6
:100562003FE5B0540FFF640F601EEF24F5600F24C7
:10057200FE600F1460102407700E7D11800A7D0941
:1005820080067D0680027D03EF640F6007E5B054AC
:060592000FFF80F4AF052D
:010598002240
:0408D9007F057E0019
:1008DD00EF1FAA0670011E4A600BE4FDEDC3940CD8
:0508ED0050EE0D80F744
:0108F20022E3
:10087300C202D2947F0C7E001208DDC2947F507EA8
:10088300001208DDD2947F0A7E001208DDA2949242
:06089300021208D9A202C6
:01089900223C
:0208BB00A9078B
:1008BD00E4FBC294E91392941208D9D294E9C313BC
:0C08CD00F90BBB08ED7F057E000208DD82
:1008F300E4FBC294ECC313FCD2943094034304800E
:090903001208D90BBB08EBAF048C
:01090C0022C8
:100719001208737FCC1208BB7F441208BB120873FE
:100729007FCC1208BB7FBE1208BB1208F3A90712BF
:1007390008F3EFFEE9FFE4AD07AC061202118F36AC
:100749008E358D348C33E4FBFA7980783D120106BD
:100759008F368E358D348C33E4FFFEFD7C3FAB360E
:0C076900AA35A934A83312001512024A68
:010775002261
:10089A00C2A9E52B5401F4FFE52B54FE4FF52BF5C5
:1008AA0080E5A0541F4480F5A0000053A01FD2A9E0
:0108BA00221B
:10036400E4FBFAF52FF530F531F532F528F52912CD
:100374000719AA06AB07AF237E00D3EB9F7480F85E
:100384006A984008752F007530028030D3EB9FEED9
:100394006480F8EA6480985013C3EB95227480F863
:1003A4006A984008752F007530018010C3EB9522C0
:1003B4007480F86A985005E4F52FF530E530452F40
:1003C4006008E5306401452F705DC2A9E4F580E55D
:1003D400A0541F44A0F5A0000053A01FE530452FF2
:1003E400701BE52A7009752A01752803752920E513
:1003F400294528702EE52A640170288021E530649F
:1004040001452F701EE52A7009752A0175280175AA
:100414002990E5294528700BE52AB40106E4F52A5C
:1004240012089AD2A98039E5306402452F7031C28E
:10043400A9758010E5A0541F44A0F5A0000053A0A6
:100444001FE52A7008752A01F5287529C8E529458C
:1004540028700BE52AB40106E4F52A12089AD2A9F9
:100464007C007D0AAF03AE021202CB8D0FAE02AF49
:10047400037C007D0A1202CB7C007D0A1202CB8D24
:100484000E750D0A750C0A750B0A750A0B85300971
:1004940075080B1204C27531008F32E532F4453110
:1004A400601BE532641045317013F528F529F52AEF
:0D04B4007F087808740AF608DFFC75210146
:0104C1002218
:0907E1000438000000000137009B
:10092200E5376404600974382537F8A607053722CD
:0C0932007F047838E4F608DFFCE4F537B9
:01093E002296
:10084600E4FFE53875F00AA42539FEE53A75F00AA5
:10085600A4253BFDE537640460030F800FEED39DAE
:0C08660050047F028006E4FF8E238D22E8
:010872002263
:100625007CFFE4F52F75080B85380985390A750DAA
:100635000B853A0E853B0F1204C2AC07ECF460E55E
:10064500EC64106008EC64116003120922BC11030C
:10065500120932BC10CF1208468F2FE52F7025C224
:10066500A9432B02852B80E5A0541F4480F5A000EB
:100675000053A01FD2A97F087808740AF608DFFC8A
:10068500E4F52122E52F6402709BC2A9532BFD8559
:100695002B80E5A0541F4480F5A0000053A01FD275
:0306A500A98082A7
:1007EA00012100012312012214012BFF022600001D
:0F07FA00C10002240000C10102280000012A00F2
:10090D00538E7F5389F0758ACD758CF8C28DD28C3C
:05091D00D2A9D2AF22B7
:10080A00752CFFE4F52DF52EF580E5A0541F44A0C4
:10081A00F5A0000053A01F7580FFE5A0541F448077
:10082A00F5A0000053A01F12090DE5211460080469
:0C083A0070F812036480F312062580EEB3
:03000B000206A842
:1006A800C0E0C0F0C083C082C0D075D000C000C018
:1006B80001C002C003C004C005C006C0070527E585
:1006C8002770020526640A45267006F526F527D206
:1006D800000525E5257002052464FA45247006F511
:1006E80024F525D201E52945286008E52915297052
:1006F800021528120776D007D006D005D004D003FB
:10070800D002D001D000D0D0D082D083D0F0D0E0B9
:0107180032AE
:10000E000202B6E86480F8E933E83360110460F068
:10001E00ED33EC337009E8FCE9FDEAFEEBFF220458
:10002E0060DED3EB9FEA9EE99DE8C2E78CF0C2F753
:10003E0095F0400CE8CCF8E9CDF9EACEFAEBCFFB1F
:10004E0012028185D0F05804700320D5B3E80470F5
:10005E00075002B2D50202C092D5EC0460F7E4CC90
:10006E00C0E0C398F8603B94186008400DD0E0FBE8
:10007E00020298E4FBFAC9FC8028E830E406E4C9E1
:10008E00FBE4CAFCE830E305E4C9CACBFCE854073C
:10009E006010F8C3E913F9EA13FAEB13FBEC13FC47
:1000AE00D8F130F52FC3E49CFCEF9BFFEE9AFEEDEA
:1000BE0099FDD0E0FBEF4E4D4C701222DB03020295
:1000CE00BDEC2CFCEF33FFEE33FEED33FDED30E7F0
:1000DE00EB020298EF2BFFEE3AFEED39FDD0E0FB7E
:1000EE0050130BBB00030202C0ED13FDEE13FEEF27
:0800FE0013FFEC13FC02029851
:10010600EC4D6011E8497017ED33EC3304600DE4F3
:10011600FCFFFEFD22E933E8330470F80202B61252
:10012600028158046009E4CC248150062850090253
:1001360002C02840030202BDC0E0EB4A7044B98009
:1001460006D0E0FB0202ACEF4E701CBD8008EBFF50
:10015600EAFEE9FD80EBE98DF0A4FEE5F00201EF91
:10016600E9CDF9EAFEEBFFEF89F0A4FCE5F0CE89D4
:10017600F0A42EFFE435F0CD89F0A42DFEE435F091
:100186008067EF4E7005BD80D780C3EF8BF0A4ACBF
:10019600F0EE8BF0A42CFCE435F0F8EF8AF0A42CFA
:1001A600E5F038FCE433CB8DF0A42CFCE5F03BF80D
:1001B600EE8AF0A42CFCE5F038F8E433CF89F0A4FD
:1001C6002CFCE5F038CF3400CE89F0A42FFFE5F003
:1001D6003EFEE433C98DF0A42EFEE5F039CD8AF05B
:1001E600A42FFFE5F03EFEE43DFD33D0E0FB5007D3
:1001F6000BBB000F0202C0EC2CFCEF33FFEE33FE0C
:06020600ED33FD02029839
:10020C0075F020800E75F010800575F0087D007E6D
:10021C00007F003392D530D503120301EC3340102C
:10022C00EF33FFEE33FEED33FDEC33FCD5F0ED2276
:0E023C00E5F0247EA2D513CC92E7CDCEFF22B2
:10024A00EDD2E7CD33EC3392D524814006E4FFFEAC
:10025A00FDFC22FCE4CFCECDCC24E0501174FF800B
:10026A00EDC3CC13CCCD13CDCE13CECF13CF0470A8
:07027A00F030D5DE020301A4
:10028100E9D2E7C933E833F892D5EDD2E7CD33ECC3
:0702910033FC5002B2D5223C
:10029800EC30E7100FBF000C0EBE00080DBD0004C7
:1002A8000BEB6014A2D5EB13FCED92E7FD2274FF73
:1002B800FCFDFEFF22E480F8A2D574FF13FC7D80CC
:0302C800E480EFE0
:030000000205995D
:0C059900787FE4F6D8FD75813B0205E098
:1002CB00C2D5EC30E709B2D5E4C39DFDE49CFCEE4E
:1002DB0030E715B2D5E4C39FFFE49EFE12030FC3B4
:1002EB00E49DFDE49CFC800312030F30D507C3E4AF
:0602FB009FFFE49EFE22BD
:0E030100C3E49FFFE49EFEE49DFDE49CFC220D
:1005A50002080AE493A3F8E493A34003F68001F25A
:1005B50008DFF48029E493A3F85407240CC8C33357
:1005C500C4540F4420C8834004F456800146F6DF26
:1005D500E4800B01020408102040809007C6E47EE9
:1005E500019360BCA3FF543F30E509541FFEE4931B
:1005F500A360010ECF54C025E060A840B8E493A3E2
:10060500FAE493A3F8E493A3C8C582C8CAC583CA0C
:10061500F0A3C8C582C8CAC583CADFE9DEE780BEC4
:0108090000EE
:10030F00BC000BBE0029EF8DF084FFADF022E4CCD2
:10031F00F875F008EF2FFFEE33FEEC33FCEE9DEC9B
:10032F00984005FCEE9DFE0FD5F0E9E4CEFD22EDE1
:10033F00F8F5F0EE8420D21CFEADF075F008EF2F2B
:10034F00FFED33FD4007985006D5F0F222C398FD1C
:05035F000FD5F0EA22B9
:00000001FF
