:10083400E4F594F593F592F591F596F595F5B2F501
:0A084400B1F5B4F5B3F5CAF5C92209
:100267001208347580FFE5A0541F4480F5A00000F4
:1002770053A01FE4F580E5A0541F44A0F5A000009B
:1002870053A01F12093A120987D2AFD2A9E4FF126D
:1002970006768F2E1205461209BC12099CEF600FD5
:1002A70012094B8F3C853C2DAD3CE4FF1206D1E58E
:1002B7001B451A7006751A01751BF4100102801987
:1002C70012073FE51475F00A8475F00A8485F02F4C
:1002D700E51475F00A8485F03012097A8E3A8F3B5F
:1002E7007C037DE81202047C007D0A1202048D3132
:1002F700AE3AAF3B7C007D641202047C007D0A129B
:1003070002048D32AE3AAF3B7C007D0A1202047CB8
:10031700007D0A1202048D33AE3AAF3B7C007D0AA2
:080327001202048D340202A150
:1004E80002180000C100021A0000C101021C00002D
:0E04F800C102021E0000C10302160000C10472
:10093A00438E805389F0758A20758CD1C28DD28CF2
:01094A00228A
:03000B0002032FBE
:10032F00C0E0C0F0C083C082C0D075D000C000C094
:10033F0001C002C003C004C005C006C0071205F00B
:10034F0012084E120782E51945186010E5191519A4
:10035F0070021518E51945187002D200E51B451AF1
:10036F006010E51B151B7002151AE51B451A70026C
:10037F00D201E51D451C6010E51D151D7002151CF1
:10038F00E51D451C7002D202E51F451E6010E51FDA
:10039F00151F7002151EE51F451E7002D203E517CB
:1003AF0045166010E517151770021516E517451657
:1003BF007002D204D007D006D005D004D003D002EB
:0F03CF00D001D000D0D0D082D083D0F0D0E03297
:10071D00C0F9A4B0999282F880908883C6A1868E84
:10072D004079243019120278001008034621060E74
:02073D00FFBFFC
:0D050600082D20202020202020010135009C
:1005F000E4F580E5A0541F44C0F5A0000053A01FFF
:10060000742D2535F8E690071D93F580E5A0541F5D
:1006100044E0F5A0000053A01FAF357401A80708FF
:100620008002C333D8FCF580E5A0541F44C0F5A078
:10063000000053A01F0535E535B40803E4F5352265
:0F051300012B00012900012A00012C0A0128FFF9
:10094B00E52A70037FFF22152A7423252AF8E6FF78
:01095B002279
:09099C00E52A7002FF227F01220E
:10046A0053B0F0D2B5D2C2D2C430B50630C20320DE
:10047A00C404052B8003E4F52BE52B64037042F5D5
:10048A002BD20720C40375220120C2037522022041
:10049A00B50375220343B00FC2B5C2C2C2C420B0AD
:1004AA0005E52214F52920B106E5222403F52920C1
:1004BA00B206E5222407F52920B306E522240BF526
:1004CA002943B00FC2B5C2C2C2C430070E20B50B51
:0D04DA0020C20820C405C207AF29227FFF01
:0104E70022F2
:10084E00D52C16752C0A12046A8F28E528F4600937
:0A085E007423252AF8A628052A2293
:0509B600007F0BDFFED5
:0109BB002219
:0F095C00D2A1D2A01209B6C2A11209B6C2A0221E
:0A099200C2A1D2A01209B6D2A12220
:10089C00EF6004C2A18002D2A11209B6D2A0120943
:0808AC00B6C2A0D2A10209B6F8
:1008B400D2A11209B6D2A01209B630A107C2A01261
:0808C4000992C322C2A0D32255
:02076100AE07E1
:10076300E4FDEE30E704D2A18002C2A11209B6D2A1
:0E077300A0EE25E0FE1209B6C2A00DBD08E4FE
:010781002255
:1007E100E4FDD2A01209B6EE25E0FE30A1034306D6
:0C07F10001C2A01209B60DBD08E8AF0659
:0107FD0022D9
:1007FE00C297E4FEEF30E004D2A38002C2A3D297E8
:0A080E00C297EFC313FF0EBE08EA05
:0108180022BD
:10081900E4FFFEEFC313FF30A305430780800353B2
:0A082900077FD297C2970EBE08E9C0
:0108330022A2
:1008CC00AE07C293C297D2935306FEAF061207FE31
:0808DC00AF051207FEC29322D2
:10000E00C293C297D2934307011207FE120819C278
:03001E00A3C293E7
:0100210022BC
:040868007F057E008A
:10086C00EF1FAA0670011E4A600BE4FDEDC3940C49
:05087C0050EE0D80F7B5
:010881002254
:1006AA00C208D2947F0C7E0012086CC2947F507EDE
:1006BA000012086CD2947F0A7E0012086CA29492EF
:0606CA0008120868A208F6
:0106D0002207
:0207C300A90784
:1007C500E4FBC294E9139294120868D294E9C31326
:0C07D500F90BBB08ED7F057E0002086CEC
:10088200E4FBC294ECC313FCD2943094034304807F
:090892001208680BBB08EBAF046F
:01089B00223A
:1006D1008F438D44C2AF12095C7FA01207611208DB
:1006E100B4AF431207611208B4AF44120761120894
:0706F100B4120992D2AF22FE
:020676008F43B0
:10067800C2AF12095C7FA01207611208B4AF43121F
:1006880007611208B412095C7FA11207611208B44D
:100698001207E18F44E4FF12089C120992D2AFAF0F
:0106A800440D
:0106A900222E
:1007A300E4FDFCE4FBFAC3EB9FEA9E50070BBB009E
:0F07B300010A80F20DBD00010CED64724C70E480
:0107C2002214
:100640001206AA7FCC1207C37F441207C37FC87E5D
:100650000012086C1206AA7FCC1207C37FBE1207D5
:10066000C31208828F45120882EFC454F0FFE5459B
:05067000C4540F420715
:010675002262
:10052200070F10000306172C3A07088C8A88868466
:020532008280C5
:0E096B00EF540FFEEFC4540F75F00AA42EFFD8
:01097900225B
:10054600E4F543740F2543F8E6FF75F00A84FEEFE1
:1005560075F00A84A6F0EEC454F0FF740F2543F834
:10056600EF26F60543E543B407D9E4FD7F8E12086E
:10057600CCE4F54374082543F8E6FF740F2543F8E9
:10058600E6FD1208CC0543E543C3940740E67D80AB
:050596007F8E0208CC7D
:10073F00E4F54374082543F8E604FF12000E12098E
:10074F006B740F2543F8A6070543E543C394074091
:01075F00E2B7
:010760002276
:0A053400C189023603E80238000016
:0309BC00D209223B
:0309BF00C2092248
:0B098700438950E4F58DF58BC28E22F1
:0D097A002009057EFF7FFF22AE38AF392235
:10091200C28EAF8DEFFEAD8B7C00E42DFFEC3EFE70
:05092200E4F58DF58BEA
:0109270022AD
:1007820030091DD28EE537153770021536E537452B
:1007920036700D7536037537E81209128E388F39A7
:0107A2002234
:07053E00C105C106014600E2
:03002300020928A7
:10092800309807C298859946D206309904C299C270
:02093800053286
:080003002005FDD2058F9922B2
:1006F8008B3D8A3E893FAB3DAA3EA93F1201EB6084
:1007080013053FE53F7002053E14F91201EBFF1295
:05071800000380E22255
:1008E400759850438E40538EFE53890F758BE07577
:0708F4008DFEC2ABD28E2283
:10059B00E4F542D291D28E1208FB309103308FFAE0
:1005AB00C28E308F09C28FE4F540F541802DAF8D9F
:1005BB007540008F41E541754100F540AF8BEF422F
:1005CB0041E4AC40AD411201317B7B7A14792E783A
:1005DB003E12002612016A8E408F41E4F58BF58D99
:0405EB00AE40AF412E
:0105EF0022E9
:0909A500438910E4F58BF58D2265
:1008FB00E4F547D2901209AEC2901209AE0547E556
:06090B0047C3940840ED13
:0109110022C3
:0709AE000000007F1EDFFEC8
:0109B500221F
:10002600EC4D6011E8497017ED33EC3304600DE4D4
:10003600FCFFFEFD22E933E8330470F80201D61214
:1000460001A158046009E4CC248150062850090215
:1000560001E02840030201DDC0E0EB4A7044B980AC
:1000660006D0E0FB0201CCEF4E701CBD8008EBFF12
:10007600EAFEE9FD80EBE98DF0A4FEE5F002010F52
:10008600E9CDF9EAFEEBFFEF89F0A4FCE5F0CE89B5
:10009600F0A42EFFE435F0CD89F0A42DFEE435F072
:1000A6008067EF4E7005BD80D780C3EF8BF0A4ACA0
:1000B600F0EE8BF0A42CFCE435F0F8EF8AF0A42CDB
:1000C600E5F038FCE433CB8DF0A42CFCE5F03BF8EE
:1000D600EE8AF0A42CFCE5F038F8E433CF89F0A4DE
:1000E6002CFCE5F038CF3400CE89F0A42FFFE5F0E4
:1000F6003EFEE433C98DF0A42EFEE5F039CD8AF03C
:10010600A42FFFE5F03EFEE43DFD33D0E0FB5007B3
:100116000BBB000F0201E0EC2CFCEF33FFEE33FECD
:06012600ED33FD0201B8FB
:10012C0075F020800E75F010800575F0087D007E4E
:10013C00007F003392D530D503120259EC334010B6
:10014C00EF33FFEE33FEED33FDEC33FCD5F0ED2257
:0E015C00E5F0247EA2D513CC92E7CDCEFF2293
:10016A00EDD2E7CD33EC3392D524814006E4FFFE8D
:10017A00FDFC22FCE4CFCECDCC24E0501174FF80EC
:10018A00EDC3CC13CCCD13CDCE13CECF13CF047089
:07019A00F030D5DE0202592E
:1001A100E9D2E7C933E833F892D5EDD2E7CD33ECA4
:0701B10033FC5002B2D5221D
:1001B800EC30E7100FBF000C0EBE00080DBD0004A8
:1001C8000BEB6014A2D5EB13FCED92E7FD2274FF54
:1001D800FCFDFEFF22E480F8A2D574FF13FC7D80AD
:0301E800E480EFC1
:030000000203DE1A
:0C03DE00787FE4F6D8FD75814702042505
:1001EB00BB010689828A83E0225002E722BBFE0212
:0901FB00E32289828A83E4932245
:10020400BC000BBE0029EF8DF084FFADF022E4CCDE
:10021400F875F008EF2FFFEE33FEEC33FCEE9DECA7
:10022400984005FCEE9DFE0FD5F0E9E4CEFD22EDED
:10023400F8F5F0EE8420D21CFEADF075F008EF2F37
:10024400FFED33FD4007985006D5F0F222C398FD28
:050254000FD5F0EA22C5
:0E025900C3E49FFFE49EFEE49DFDE49CFC22B6
:1003EA00020267E493A3F8E493A34003F68001F2C0
:1003FA0008DFF48029E493A3F85407240CC8C33314
:10040A00C4540F4420C8834004F456800146F6DFE2
:10041A00E4800B01020408102040809004E8E47E86
:10042A00019360BCA3FF543F30E509541FFEE493D7
:10043A00A360010ECF54C025E060A840B8E493A39E
:10044A00FAE493A3F8E493A3C8C582C8CAC583CAC9
:10045A00F0A3C8C582C8CAC583CADFE9DEE780BE81
:0105450000B5
:00000001FF
