:1005B500E4F594F593F592F591F596F595F5B2F583
:0A05C500B1F5B4F5B3F5CAF5C9228B
:10000E001205B57580FFE5A0541F4480F5A00000D1
:10001E0053A01FE4F580E5A0541F44A0F5A00000F6
:10002E0053A01F12068F1206DCD2AFD2A9E4FF1224
:10003E00041C8F2D1202EC1206FA1206F1EF600567
:10004E001206A08F2CE51B451A7006751A01751B3A
:10005E00F410010280191204C0E51475F00A8475BB
:10006E00F00A8485F02EE51475F00A8485F02F12BF
:10007E0006CF8E398F3A7C037DE81203417C007DDA
:10008E000A1203418D30AE39AF3A7C007D64120303
:10009E00417C007D0A1203418D31AE39AF3A7C00AE
:1000AE007D0A1203417C007D0A1203418D32AE3966
:0E00BE00AF3A7C007D0A1203418D33020048E8
:1002950002180000C100021A0000C101021C000082
:0E02A500C102021E0000C10302160000C104C7
:10068F00438E805389F0758A20758CD1C28DD28CA0
:01069F002238
:03000B000200CC24
:1000CC00C0E0C0F0C083C082C0D075D000C000C0FA
:1000DC0001C002C003C004C005C006C007120396CD
:1000EC001205CF120503E51945186010E51915190D
:1000FC0070021518E51945187002D200E51B451A57
:10010C006010E51B151B7002151AE51B451A7002D1
:10011C00D201E51D451C6010E51D151D7002151C56
:10012C00E51D451C7002D202E51F451E6010E51F3F
:10013C00151F7002151EE51F451E7002D203E51730
:10014C0045166010E517151770021516E5174516BC
:10015C007002D204D007D006D005D004D003D00250
:0F016C00D001D000D0D0D082D083D0F0D0E032FC
:10049E00C0F9A4B0999282F880908883C6A1868E06
:1004AE004079243019120278001008034621060EF6
:0204BE00FFBF7E
:0D02B300082C2020202020202001013400F4
:10039600E4F580E5A0541F44C0F5A0000053A01F5B
:1003A600742C2534F8E690049E93F580E5A0541F3E
:1003B60044E0F5A0000053A01FAF347401A807085D
:1003C6008002C333D8FCF580E5A0541F44C0F5A0D5
:1003D600000053A01F0534E534B40803E4F53422C5
:0F02C000012A00012800012900012B0A0127FF54
:1006A000E52970037FFF22152974222529F8E6FF2A
:0106B0002227
:0906F100E5297002FF227F0122BD
:10017B0075B0F0D2C2D2C4E5B0B4F00620C20330E1
:10018B00C404052A8003E4F52AE52A64037052F5BA
:10019B002AD20520C40375210120C203752102E573
:1001AB00B020E503752103E5B020E4037521047548
:1001BB00B00FC2C2C2C4E5B020E005E52114F5289A
:1001CB00E5B020E106E5212403F528E5B020E206A1
:1001DB00E5212407F528E5B020E306E521240BF5FE
:1001EB002875B00FC2C2C2C4300510E5B0B40F0BF6
:0D01FB0020C20820C405C205AF28227FFFE6
:0102080022D3
:1005CF00D52B16752B0A12017B8F27E527F46009AF
:0A05DF0074222529F8A62705292219
:05000300007F0BDFFE91
:0100080022D5
:0F06B100D2A1D2A0120003C2A1120003C2A02244
:0A06E700C2A1D2A0120003D2A1228A
:10061D00EF6004C2A18002D2A1120003D2A0120089
:08062D0003C2A0D2A1020003E8
:10063500D2A1120003D2A012000330A107C2A0125A
:0806450006E7C322C2A0D32284
:0204E200AE0763
:1004E400E4FDEE30E704D2A18002C2A1120003D2DF
:0E04F400A0EE25E0FE120003C2A00DBD08E43C
:0105020022D6
:10056200E4FDD2A0120003EE25E0FE30A103430613
:0C05720001C2A01200030DBD08E8AF0696
:01057E00225A
:10057F00C297E4FEEF30E004D2A38002C2A3D29769
:0A058F00C297EFC313FF0EBE08EA87
:01059900223F
:10059A00E4FFFEEFC313FF30A30543078080035334
:0A05AA00077FD297C2970EBE08E942
:0105B4002224
:10064D00AE07C293C297D2935306FEAF0612057F33
:08065D00AF0512057FC29322D4
:10067B00C293C297D29343070112057F12059AC208
:03068B00A3C29374
:01068E002249
:0405E9007F057E000C
:1005ED00EF1FAA0670011E4A600BE4FDEDC3940CCB
:0505FD0050EE0D80F737
:0106020022D5
:10045000C206D2947F0C7E001205EDC2947F507EBE
:10046000001205EDD2947F0A7E001205EDA294924F
:06047000061205E9A206D8
:010476002263
:02054400A90705
:10054600E4FBC294E91392941205E9D294E9C31329
:0C055600F90BBB08ED7F057E000205EDEF
:10060300E4FBC294ECC313FCD29430940343048000
:090613001205E90BBB08EBAF0472
:01061C0022BB
:100477008F3B8D3CC2AF1206B17FA01204E2120679
:1004870035AF3B1204E2120635AF3C1204E2120606
:07049700351206E7D2AF2287
:02041C008F3D12
:10041E00C2AF1206B17FA01204E2120635AF3D1232
:10042E0004E21206351206B17FA11204E21206355D
:10043E001205628F3EE4FF12061D1206E7D2AFAF21
:01044E003E6F
:01044F00228A
:10052400E4FDFCE4FBFAC3EB9FEA9E50070BBB001F
:0F053400010A80F20DBD00010CED64724C70E401
:010543002295
:1003E6001204507FCC1205447F441205447FC87E18
:1003F600001205ED1204507FCC1205447FBE120593
:10040600441206038F3F120603EFC454F0FFE53F84
:05041600C4540F420771
:01041B0022BE
:1002CF00070F10000306172C3A07088C8A888684BC
:0202DF0082801B
:0E06C000EF540FFEEFC4540F75F00AA42EFF86
:0106CE002209
:1002EC00E4F53D740F253DF8E6FF75F00A84FEEF4A
:1002FC0075F00A84A6F0EEC454F0FF740F253DF897
:10030C00EF26F6053DE53DB407D9E4FD7F8E1206D8
:10031C004DE4F53D7408253DF8E6FF740F253DF8D6
:10032C00E6FD12064D053DE53DC3940740E67D8094
:05033C007F8E02064D5A
:1004C000E4F53D7408253DF8E604FF12067B1206AC
:1004D000C0740F253DF8A607053DE53DC3940740D0
:0104E000E239
:0104E10022F8
:0A02E100C187023503E80237000070
:0306FA00D2072202
:0306FD00C207220F
:0B06DC00438950E4F58DF58BC28E229F
:0D06CF002007057EFF7FFF22AE37AF3822E7
:10066500C28EAF8DEFFEAD8B7C00E42DFFEC3EFE20
:05067500E4F58DF58B9A
:01067A00225D
:1005030030071DD28EE536153670021535E53645B2
:1005130035700D7535037536E81206658E378F38DD
:0105230022B5
:03000000020209F0
:0C020900787FE4F6D8FD75813F020250BA
:10034100BC000BBE0029EF8DF084FFADF022E4CCA0
:10035100F875F008EF2FFFEE33FEEC33FCEE9DEC69
:10036100984005FCEE9DFE0FD5F0E9E4CEFD22EDAF
:10037100F8F5F0EE8420D21CFEADF075F008EF2FF9
:10038100FFED33FD4007985006D5F0F222C398FDEA
:050391000FD5F0EA2287
:1002150002000EE493A3F8E493A34003F68001F2F1
:1002250008DFF48029E493A3F85407240CC8C333EA
:10023500C4540F4420C8834004F456800146F6DFB9
:10024500E4800B0102040810204080900295E47EB2
:10025500019360BCA3FF543F30E509541FFEE493AE
:10026500A360010ECF54C025E060A840B8E493A375
:10027500FAE493A3F8E493A3C8C582C8CAC583CAA0
:10028500F0A3C8C582C8CAC583CADFE9DEE780BE58
:0102EB000012
:00000001FF
