:1005D600010D00010C00011100020F0000010A00CC
:0905E600010B0001091E010E14B5
:10070300E4F594F593F592F591F596F595F5B2F533
:0A071300B1F5B4F5B3F5CAF5C9223B
:1007A700438E805389F0758A20758CD1C28DD28C87
:0107B700221F
:1007B800438E4053890F758B50758DFBC28FD28E37
:0107C800220E
:100246001207031207A71207B8D2AFD2BBC2B9D2A0
:10025600A9E4FF1206568F097F011206568F0EE596
:100266000EC39509400385090EE50C6055E4F50CAF
:1002760012040C8F11E511F46048E51124FE601597
:1002860014601D1460252403702AE50ED3940040E3
:1002960023150E801FE509D3950E40181509801405
:1002A600E50EC39509500D050E8009E509C3946353
:1002B60050020509AD09E4FF12067DAD0E7F01125D
:1002C600067DE50A604AE4F50A1204A67C007D6410
:1002D6001201E38F0B120792E50BD395094009D261
:1002E600ABC2A9E4F580801BE50BC3950E500BC28B
:1002F600ABD2B4C2A97580108009C2ABD2B4C2A970
:10030600E4F580E5A0541F44A0F5A053A01FD2A990
:0D031600AF0E12077DAF0912076802026FDB
:03000B000203AF3E
:1003AF00C0E0C0F0C083C082C0D075D000C000C014
:1003BF0001C002C003C004C005C006C00712045C20
:1003CF00050DE50DB40A06750D00750C010510E558
:1003DF00107002050F64FA450F7007F50FF51075D1
:1003EF000A01D007D006D005D004D003D002D00127
:0D03FF00D000D0D0D082D083D0F0D0E0323A
:03001B000206C515
:0406C500C0E0C0D001
:1006C9000508E508B40304C2B4800CE508C3940A1C
:0706D9004005750800D2B4D2
:0506E000D0D0D0E03293
:0905EF00011CFF011D00011B00AD
:10040C00E51B703930B00930B10630B20320B304AB
:10041C00051D8003E4F51DE51D64037030F51D75A5
:10042C001B0120B003751C0120B103751C0220B206
:10043C0003751C0320B303751C04AF1C22E51BB40D
:10044C00010BE5B0540FFFBF0F03E4F51B7FFF2238
:1006A300C0F9A4B0999282F880908883C6A1868EFF
:1006B3004079243019120278001008034621060EEF
:0206C300FFBF77
:0D05F80008122020202020202000011A00E1
:10045C00E4F580E5A0541F44C0F5A053A01F74120E
:10046C00251AF8E69006A393F580E5A0541F44E006
:10047C00F5A053A01FAF1A7401A807088002C3335C
:10048C00D8FCF580E5A0541F44C0F5A053A01F056F
:0A049C001AE51AB40803E4F51A2269
:10076800EF75F00A8475F00A8485F012EF75F00AC7
:050778008485F013224E
:10077D00EF75F00A8475F00A8485F014EF75F00AB0
:05078D008485F0152237
:10079200EF75F00A8475F00A8485F018EF75F00A97
:0507A2008485F019221E
:04071D007F057E00D6
:10072100EF1FAA0670011E4A600BE4FDEDC3940C95
:0507310050EE0D80F701
:0107360022A0
:10062F00C200D2947F0C7E00120721C2947F507EAD
:10063F0000120721D2947F0A7E00120721A2949202
:06064F000012071DA200CD
:010655002282
:0206E500A90763
:1006E700E4FBC294E913929412071DD294E9C31351
:0C06F700F90BBB08ED7F057E0002072117
:10073700E4FBC294ECC313FCD294309403430480CB
:0907470012071D0BBB08EBAF0407
:010750002286
:1004A60012062F7FCC1206E57F441206E57FC87E32
:1004B6000012072112062F7FCC1206E57FBE120618
:1004C600E5120737A907120737AD07AF01EFFEEDB3
:1004D600FFE4AC06120129E4FBFA7980783D1200AC
:0404E6001E1201627F
:0104EA0022EF
:10060600D2A1D2A0000000000000000000000000FF
:1006160000000000C2A10000000000000000000071
:09062600000000000000C2A02247
:10075100C2A1D2A0000000000000000000000000C3
:0707610000000000D2A122FC
:1004EB00EF6004C2A18002D2A10000000000000056
:1004FB00000000000000000000D2A000000000007F
:10050B000000000000000000000000C2A0D2A1000B
:10051B0000000000000000000000000000000022AE
:0B052B00120568120536AF05120568C6
:10053600D2A1000000000000000000000000000042
:100546000000D2A000000000000000000000000033
:100556000000000030A107C2A0120751C322C2A0AA
:02056600D3229E
:10056800E4FEEF30E704D2A18002C2A1000000003F
:10057800000000000000000000000000D2A0EF25ED
:10058800E0FF000000000000000000000000000084
:080598000000C2A00EBE08CA5B
:0105A0002238
:1005A100E4FED2A0000000000000000000000000F6
:1005B10000000000EF25E0FF30A103430701C2A0C6
:1005C100000000000000000000000000000000002A
:0405D1000EBE08CE84
:0105D5002203
:10067D00AC071206067FA0120568120536AF0412EC
:10068D00052B1207510000000000000000000000C3
:06069D0000000000002235
:02065600AD07EE
:10065800E4FE1206067FA012052B1206067FA112E1
:1006680005681205361205A1AE07E4FF1204EB1265
:040678000751AF0671
:01067C00225B
:10001E00EC4D6011E8497017ED33EC3304600DE4DC
:10002E00FCFFFEFD22E933E8330470F80201CE1224
:10003E00019958046009E4CC248150062850090225
:10004E0001D82840030201D5C0E0EB4A7044B980C4
:10005E0006D0E0FB0201C4EF4E701CBD8008EBFF22
:10006E00EAFEE9FD80EBE98DF0A4FEE5F002010762
:10007E00E9CDF9EAFEEBFFEF89F0A4FCE5F0CE89BD
:10008E00F0A42EFFE435F0CD89F0A42DFEE435F07A
:10009E008067EF4E7005BD80D780C3EF8BF0A4ACA8
:1000AE00F0EE8BF0A42CFCE435F0F8EF8AF0A42CE3
:1000BE00E5F038FCE433CB8DF0A42CFCE5F03BF8F6
:1000CE00EE8AF0A42CFCE5F038F8E433CF89F0A4E6
:1000DE002CFCE5F038CF3400CE89F0A42FFFE5F0EC
:1000EE003EFEE433C98DF0A42EFEE5F039CD8AF044
:1000FE00A42FFFE5F03EFEE43DFD33D0E0FB5007BC
:10010E000BBB000F0201D8EC2CFCEF33FFEE33FEDD
:06011E00ED33FD0201B00B
:1001240075F020800E75F010800575F0087D007E56
:10013400007F003392D530D503120238EC334010DF
:10014400EF33FFEE33FEED33FDEC33FCD5F0ED225F
:0E015400E5F0247EA2D513CC92E7CDCEFF229B
:10016200EDD2E7CD33EC3392D524814006E4FFFE95
:10017200FDFC22FCE4CFCECDCC24E0501174FF80F4
:10018200EDC3CC13CCCD13CDCE13CECF13CF047091
:07019200F030D5DE02023857
:10019900E9D2E7C933E833F892D5EDD2E7CD33ECAC
:0701A90033FC5002B2D52225
:1001B000EC30E7100FBF000C0EBE00080DBD0004B0
:1001C0000BEB6014A2D5EB13FCED92E7FD2274FF5C
:1001D000FCFDFEFF22E480F8A2D574FF13FC7D80B5
:0301E000E480EFC9
:03000000020323D5
:0C032300787FE4F6D8FD75812002036AA3
:1001E300BC000BBE0029EF8DF084FFADF022E4CC00
:1001F300F875F008EF2FFFEE33FEEC33FCEE9DECC9
:10020300984005FCEE9DFE0FD5F0E9E4CEFD22ED0E
:10021300F8F5F0EE8420D21CFEADF075F008EF2F58
:10022300FFED33FD4007985006D5F0F222C398FD49
:050233000FD5F0EA22E6
:0E023800C3E49FFFE49EFEE49DFDE49CFC22D7
:10032F00020246E493A3F8E493A34003F68001F29C
:10033F0008DFF48029E493A3F85407240CC8C333CF
:10034F00C4540F4420C8834004F456800146F6DF9E
:10035F00E4800B01020408102040809005D6E47E53
:10036F00019360BCA3FF543F30E509541FFEE49393
:10037F00A360010ECF54C025E060A840B8E493A35A
:10038F00FAE493A3F8E493A3C8C582C8CAC583CA85
:10039F00F0A3C8C582C8CAC583CADFE9DEE780BE3D
:0106050000F4
:00000001FF
