:10093E00C0F9A4B0999282F880908883C6A1868E61
:10094E004079243019120278001008034621060E51
:02095E00FFBFD9
:10077B0008222020202020202020013400024A00C3
:10078B00000151000743100003060C3B3A073B8C5A
:10079B008A88868482800150000121000139000182
:1007AB004D00014200014F00014E00014C0004536B
:1007BB0001051E3C0158000A2A0000000000000041
:1007CB00000000013A000435020A3C780157000191
:0507DB0052000159006D
:1009B400E4F594F593F592F591F596F595F5B2F580
:0A09C400B1F5B4F5B3F5CAF5C92288
:1007E100E4F580E5A0541F44C0F5A0000053A01F0C
:1007F100C3740795342422F8E690093E93F580E509
:10080100A0541F44E0F5A0000053A01FAF347401B1
:10081100A807088002C333D8FCF580E5A0541F4423
:10082100C0F5A0000053A01F0534E534B40803E46B
:03083100F5342279
:08033A008F0B8E0A8D098C085F
:10034200750D07E47B0AFAF9F812029AAF038F22BD
:10035200E47B0AFAF9F8AF0BAE0AAD09AC08120257
:100362009AE47B0AFAF9F812029AAF038F23E47B2C
:1003720064FAF9F8AF0BAE0AAD09AC0812029AE4BE
:100382007B0AFAF9F812029AAF038F24E47BE87A27
:1003920003F9F8AF0BAE0AAD09AC0812029AE47B7E
:1003A2000AFAF9F812029AAF038F25E47B107A2732
:1003B200F9F8AF0BAE0AAD09AC0812029AE47B0A57
:1003C200FAF9F812029AAF038F267BA07A86790196
:1003D2007800AF0BAE0AAD09AC0812029AE47B0AB0
:1003E200FAF9F812029AAF038F277B407A42790F0B
:1003F2007800AF0BAE0AAD09AC0812029AE47B0A90
:10040200FAF9F812029AAF038F287B807A967998CC
:100412007800AF0BAE0AAD09AC0812029AE47B0A6F
:10042200FAF9F812029AAF038F29E50CB4010D74A0
:0C04320022250DF8E670057620D50DF3AC
:01043E00229B
:1008F000EF75F00A8485F022EF75F00A8475F00A2E
:100900008485F023752421752520752620752720E0
:070910007528207529202243
:0C060C00E548FD7C00E549FB7A00AF47A3
:100618008F118C128D137C007D0AAF03AE0212027B
:10062800288D227C007D0AAF03AE021202287C00CE
:100638007D0A1202288D23AE02AF037C007D0212D0
:100648000228ED4C60087524217527218006752441
:1006580020752720AE12AF137C007D0A1202288D68
:1006680025AE12AF137C007D0A1202287C007D0A99
:100678001202288D26E51175F00A8485F028E51107
:0C06880075F00A8475F00A8485F02922C0
:100834008F11AB05AA047C007D0AAF03AE0212023D
:10084400288D22AE02AF037C007D0A1202287C00B0
:100854007D0A1202288D23752421752520752620F2
:10086400E51175F00A8485F027E51175F00A8475A1
:0A087400F00A8485F028752921227E
:1008C500C28C53A01FED70057580FF800E7401A8C2
:1008D50007088002C333D8FCF4F580E5A0541F4413
:0B08E50080F5A0000053A01FD28C2261
:0409CE007F057E0023
:1009D200EF1FAA0670011E4A600BE4FDEDC3940CE2
:0509E20050EE0D80F74E
:0109E70022ED
:10091700C200D2947F0C7E001209D2C2947F507E0F
:10092700001209D2D2947F0A7E001209D2A29492B1
:06093700001209CEA2002F
:01093D002297
:02096000A907E5
:10096200E4FBC294E91392941209CED294E9C31320
:0C097200F90BBB08ED7F057E000209D2E6
:1009E800E4FBC294ECC313FCD29430940343048018
:0909F8001209CE0BBB08EBAF04A1
:010A010022D2
:10069400120917C28C7FCC1209607F44120960D200
:1006A4008C7FC87E001209D2120917C28C7FCC122B
:1006B40009607FBE120960D28C1209E8A9071209E9
:1006C400E8AD07AF01754A008F4BE54B754B00F55C
:1006D4004AAF05EF424BE4AC4AAD4B120119E4FBBF
:1006E400FA7980783D12000E1201528E4A8F4B74B3
:1006F40032254BF54BE4354AF54AFEAF4B7C007D81
:0B070400641201D38E4A8F4B854B51CD
:01070F0022C7
:10097E00C297E4FEEF30E004D2A38002C2A3D29766
:0A098E00C297EFC313FF0EBE08EA84
:01099800223C
:10099900E4FFFEEFC313FF30A30543078080035331
:0A09A900077FD297C2970EBE08E93F
:0109B3002221
:100A1C00AE07C293C297D2935306FEAF0612097E5D
:080A2C00AF0512097EC29322FE
:100A3400C293C297D29343070112097E120999C245
:030A4400A3C293B7
:010A4700228C
:0F0A5900EFC4540F75F00AA4FEEF540F2EFF22C6
:10087E00E4FC74432CF8E6FF75F00A84FEEF75F085
:10088E000A84A6F0EEC454F0FF74432CF8EF26F65B
:10089E000CBC07DEE4FD7F8E120A1CE4FC743B2CBC
:1008AE00F8E6FF74432CF8E6FD120A1C0CBC07EDAB
:0708BE007D807F8E020A1C01
:100A0200E4FD743B2DF8E604FF120A34120A59740D
:090A1200432DF8A6070DBD07E90C
:010A1B0022B8
:080A68007F757EB8DEFEDFFCA5
:010A70002263
:1004EF0020B01C120A6820B013755201755901E52E
:1004FF004CB40208E4F54CFDFF1208C530B0FD20E6
:10050F00B124120A6820B11B755201755902E54CCE
:10051F00B402100557E557B40A03E4F557E4FDFF9D
:10052F001208C530B1FD20B218120A6820B20F753B
:10053F005201755903E54C7005754C01F53A30B20F
:10054F00FD20B32C120A6820B3237552017559048C
:10055F00E54C700A0558E558B40403E4F558E54C2A
:10056F00B4010A754C027D01E4FF1208C530B3FDDA
:01057F002259
:100A4800438E805389F0758A40758CA2C28DD28CF2
:010A5800227B
:10043F001209B47580FFE5A0541F4480F5A0000099
:10044F0053A01FE4F580E5A0541F44A0F5A00000C1
:10045F0053A01F120A48D2A9D2AF12087EE550B49A
:10046F000106E4F5501204EFE542B40109E4F54248
:10047F00120A0212060CE54C64017033E53964016F
:10048F00702DF539054E74352558F8E6B54E20E434
:10049F00F54E120694742A253AF8A651053AE53A14
:1004AF00B40A0CE4F53A754C027D01FF1208C5E55C
:1004BF004C146013146016240270A274532558F85C
:1004CF00E6FF1208F0809612060C02046CE5570442
:1004DF00FF742A2557F8E6FD7C0012083402046CDD
:03000B00020710D9
:10071000C0E0C0F0C083C082C0D075D000C000C0AF
:1007200002C003C004C005C006C0071207E10521CE
:10073000E521B40506752100755001E54CB40110A2
:10074000054FE54FB43209754D0075420112060C94
:10075000E54CB4010D054DE54DB4FA06754D007537
:100760003901D007D006D005D004D003D002D00084
:0B077000D0D0D082D083D0F0D0E03297
:10000E00EC4D6011E8497017ED33EC3304600DE4EC
:10001E00FCFFFEFD22E933E8330470F80201BE1244
:10002E00018958046009E4CC248150062850090245
:10003E0001C82840030201C5C0E0EB4A7044B980F4
:10004E0006D0E0FB0201B4EF4E701CBD8008EBFF42
:10005E00EAFEE9FD80EBE98DF0A4FEE5F00200F783
:10006E00E9CDF9EAFEEBFFEF89F0A4FCE5F0CE89CD
:10007E00F0A42EFFE435F0CD89F0A42DFEE435F08A
:10008E008067EF4E7005BD80D780C3EF8BF0A4ACB8
:10009E00F0EE8BF0A42CFCE435F0F8EF8AF0A42CF3
:1000AE00E5F038FCE433CB8DF0A42CFCE5F03BF806
:1000BE00EE8AF0A42CFCE5F038F8E433CF89F0A4F6
:1000CE002CFCE5F038CF3400CE89F0A42FFFE5F0FC
:1000DE003EFEE433C98DF0A42EFEE5F039CD8AF054
:1000EE00A42FFFE5F03EFEE43DFD33D0E0FB5007CC
:1000FE000BBB000F0201C8EC2CFCEF33FFEE33FEFE
:06010E00ED33FD0201A02B
:1001140075F020800E75F010800575F0087D007E66
:10012400007F003392D530D50312032CEC334010FA
:10013400EF33FFEE33FEED33FDEC33FCD5F0ED226F
:0E014400E5F0247EA2D513CC92E7CDCEFF22AB
:10015200EDD2E7CD33EC3392D524814006E4FFFEA5
:10016200FDFC22FCE4CFCECDCC24E0501174FF8004
:10017200EDC3CC13CCCD13CDCE13CECF13CF0470A1
:07018200F030D5DE02032C72
:10018900E9D2E7C933E833F892D5EDD2E7CD33ECBC
:0701990033FC5002B2D52235
:1001A000EC30E7100FBF000C0EBE00080DBD0004C0
:1001B0000BEB6014A2D5EB13FCED92E7FD2274FF6C
:1001C000FCFDFEFF22E480F8A2D574FF13FC7D80C5
:0301D000E480EFD9
:0300000002058076
:0C058000787FE4F6D8FD7581590205C7AC
:1001D300BC000BBE0029EF8DF084FFADF022E4CC10
:1001E300F875F008EF2FFFEE33FEEC33FCEE9DECD9
:1001F300984005FCEE9DFE0FD5F0E9E4CEFD22ED1F
:10020300F8F5F0EE8420D21CFEADF075F008EF2F68
:10021300FFED33FD4007985006D5F0F222C398FD59
:050223000FD5F0EA22F6
:10022800C2D5EC30E709B2D5E4C39DFDE49CFCEEF1
:1002380030E715B2D5E4C39FFFE49EFE1201D3C395
:10024800E49DFDE49CFC80031201D330D507C3E490
:060258009FFFE49EFE2260
:10025E0075F008758200EF2FFFEE33FECD33CDCC57
:10026E0033CCC58233C5829BED9AEC99E5829840DA
:10027E000CF582EE9BFEED9AFDEC99FC0FD5F0D6B7
:10028E00E4CEFBE4CDFAE4CCF9A88222B800C1B9E1
:10029E000059BA002DEC8BF084CFCECDFCE5F0CB1F
:1002AE00F97818EF2FFFEE33FEED33FDEC33FCEB58
:1002BE0033FB10D703994004EB99FB0FD8E5E4F913
:1002CE00FA227818EF2FFFEE33FEED33FDEC33FC00
:1002DE00C933C910D7059BE99A4007EC9BFCE99AF4
:1002EE00F90FD8E0E4C9FAE4CCFB2275F010EF2F39
:1002FE00FFEE33FEED33FDCC33CCC833C810D70739
:10030E009BEC9AE899400AED9BFDEC9AFCE899F873
:0E031E000FD5F0DAE4CDFBE4CCFAE4C8F92206
:0E032C00C3E49FFFE49EFEE49DFDE49CFC22E2
:10058C0002043FE493A3F8E493A34003F68001F242
:10059C0008DFF48029E493A3F85407240CC8C33370
:1005AC00C4540F4420C8834004F456800146F6DF3F
:1005BC00E4800B010204081020408090077BE47E4D
:1005CC00019360BCA3FF543F30E509541FFEE49334
:1005DC00A360010ECF54C025E060A840B8E493A3FB
:1005EC00FAE493A3F8E493A3C8C582C8CAC583CA26
:1005FC00F0A3C8C582C8CAC583CADFE9DEE780BEDE
:0107E0000018
:00000001FF
