:09001A00515441540051515100B0
:1002FF00120003D2ACD2AF78477C007D007BFF7A2F
:10030F0000791A12010B75520478237C007D007B53
:10031F00FF7A00791F12010B752D033001FDC20109
:0B032F007B007A00792E12033A80F068
:10025000C180C10159000000000000000000000042
:10026000000000000000000000000000000000008E
:10027000012200192E000000000000000000000014
:10028000000000000000000000000000000001511C
:10029000000153000A474154000000000000000024
:1002A0000152020A23515151515100000000000136
:0502B0002100012D03F7
:10033A008B088A09890AAB08AA09A90A120026FFAA
:10034A006013120360BF01EE7401250AF50AE43551
:06035A0009F50980E12213
:10012800E522FD3395E0FC74002DF58274003CF562
:1001380083EFF0E55314603B0460030201C3C3E599
:10014800526480F8E522648098501B74002DF58273
:1001580074003CF583E0FF74472522F8E6FEEFB50E
:10016800060405228003E4F522E5226552704C75E9
:10017800530122AF22EF3395E0FE74002FF582740D
:10018800003EF583E0FF74232521F8E6FEEFB5066F
:100198000405218003E4F521E521B52D13E4F521BB
:1001A800F522F553D201742C2551F8E4F6F55122C5
:0C01B800742E2551F8A6070551052222DF
:10000300759850538EBF538EFE53890F758BE875C9
:070013008DFFC2ABD28E226B
:0D036000300007C2008F997F01227F00222C
:030023000202B620
:1002B600C0E0C0F0C083C082C0D075D000C000C00E
:0D02C60001C002C003C004C005C006C0078F
:1002D300309904C299D200309807C298AF9912019D
:0102E30028F2
:1002E400D007D006D005D004D003D002D001D0006E
:0B02F400D0D0D082D083D0F0D0E03218
:030000000201C436
:0C01C400787FE4F6D8FD75815302020B31
:10002600BB010689828A83E0225002E722BBFE02D8
:09003600E32289828A83E493220B
:10003F00E709F60870FA8046E709F20870FA803E81
:10004F0088828C83E709F0A370FA807EE309F608B3
:10005F0070FA8076E309F20870FA806E88828C83DA
:10006F00E309F0A370FA806289828A83E0A3F6081D
:10007F0070FA805689828A83E0A3F20870FA804A68
:10008F0080D280FA80C680D4806580F28031801063
:10009F0080A680EA809A80A880DA80E280CA8031C8
:1000AF0089828A83ECFAE493A3C8C582C8CCC5833E
:1000BF00CCF0A3C8C582C8CCC583CC70E9800D89AC
:1000CF00828A83E493A3F60870F9ECFAA9F0EDFBAA
:1000DF002289828A83ECFAE0A3C8C582C8CCC58383
:1000EF00CCF0A3C8C582C8CCC583CC70EA80DD89AB
:1000FF00828A83E493A3F20870F980CE88F0ED240E
:10010F0002B4040050C4F582EB2402B4040050BAC8
:09011F00232345822390008F7315
:1001D0000202FFE493A3F8E493A34003F68001F244
:1001E00008DFF48029E493A3F85407240CC8C33330
:1001F000C4540F4420C8834004F456800146F6DFFF
:10020000E4800B0102040810204080900250E47E3C
:10021000019360BCA3FF543F30E509541FFEE493F3
:10022000A360010ECF54C025E060A840B8E493A3BA
:10023000FAE493A3F8E493A3C8C582C8CAC583CAE5
:10024000F0A3C8C582C8CAC583CADFE9DEE780BE9D
:0102B5000048
:00000001FF
